{
  "contractName": "DDContractList",
  "abi": [
    {
      "constant": false,
      "inputs": [
        {
          "name": "_deleteIndex",
          "type": "uint256"
        }
      ],
      "name": "deleteByIndex",
      "outputs": [],
      "payable": false,
      "stateMutability": "nonpayable",
      "type": "function"
    },
    {
      "constant": false,
      "inputs": [],
      "name": "getContracList",
      "outputs": [
        {
          "name": "",
          "type": "address[]"
        }
      ],
      "payable": false,
      "stateMutability": "nonpayable",
      "type": "function"
    },
    {
      "constant": false,
      "inputs": [
        {
          "name": "_address",
          "type": "address"
        }
      ],
      "name": "push",
      "outputs": [],
      "payable": false,
      "stateMutability": "nonpayable",
      "type": "function"
    },
    {
      "constant": false,
      "inputs": [],
      "name": "getLength",
      "outputs": [
        {
          "name": "",
          "type": "uint256"
        }
      ],
      "payable": false,
      "stateMutability": "nonpayable",
      "type": "function"
    }
  ],
  "bytecode": "0x6060604052341561000f57600080fd5b61035c8061001e6000396000f300606060405260043610610062576000357c0100000000000000000000000000000000000000000000000000000000900463ffffffff1680631e69607e146100675780637473aa771461008a57806389b09de7146100f4578063be1c766b1461012d575b600080fd5b341561007257600080fd5b6100886004808035906020019091905050610156565b005b341561009557600080fd5b61009d6101c5565b6040518080602001828103825283818151815260200191508051906020019060200280838360005b838110156100e05780820151818401526020810190506100c5565b505050509050019250505060405180910390f35b34156100ff57600080fd5b61012b600480803573ffffffffffffffffffffffffffffffffffffffff16906020019091905050610259565b005b341561013857600080fd5b6101406102bf565b6040518082815260200191505060405180910390f35b6000805490508110151561016957600080fd5b6000808281548110151561017957fe5b906000526020600020900160006101000a81548173ffffffffffffffffffffffffffffffffffffffff021916908373ffffffffffffffffffffffffffffffffffffffff16021790555050565b6101cd6102cb565b600080548060200260200160405190810160405280929190818152602001828054801561024f57602002820191906000526020600020905b8160009054906101000a900473ffffffffffffffffffffffffffffffffffffffff1673ffffffffffffffffffffffffffffffffffffffff1681526020019060010190808311610205575b5050505050905090565b6000805480600101828161026d91906102df565b9160005260206000209001600083909190916101000a81548173ffffffffffffffffffffffffffffffffffffffff021916908373ffffffffffffffffffffffffffffffffffffffff1602179055505050565b60008080549050905090565b602060405190810160405280600081525090565b81548183558181151161030657818360005260206000209182019101610305919061030b565b5b505050565b61032d91905b80821115610329576000816000905550600101610311565b5090565b905600a165627a7a723058200d2f21558d3cdb336e9e317ffd9807545f5935749dcdad87c8e2498c3cc62e550029",
  "source": "pragma solidity ^0.4.17;\n\ncontract DDContractList {\n\n  address[] ListOfContracts;\n\n  function push(address _address) {\n    ListOfContracts.push(_address);\n  }\n\n  function getLength() returns (uint) {\n    return ListOfContracts.length;\n  }\n\n  function getContracList() returns (address[]) {\n    return ListOfContracts;\n  }\n\n  function deleteByIndex(uint _deleteIndex) {\n    require(_deleteIndex < ListOfContracts.length);\n    ListOfContracts[_deleteIndex] = 0;\n  }\n\n}\n",
  "sourcePath": "/home/blocker/Desktop/Blockathon/blockathon2017-team8/contracts/DDContractList.sol",
  "compiler": {
    "name": "solc",
    "version": "0.4.18+commit.9cf6e910.Emscripten.clang"
  },
  "schemaVersion": "1.0.1",
  "updatedAt": "2017-11-25T09:23:40.149Z"
}