{
  "contractName": "Token",
  "abi": [
    {
      "constant": false,
      "inputs": [
        {
          "name": "_from",
          "type": "address"
        }
      ],
      "name": "byTokens",
      "outputs": [],
      "payable": true,
      "stateMutability": "payable",
      "type": "function"
    },
    {
      "constant": true,
      "inputs": [
        {
          "name": "",
          "type": "address"
        }
      ],
      "name": "tokenShops",
      "outputs": [
        {
          "name": "isActived",
          "type": "bool"
        },
        {
          "name": "amountTokens",
          "type": "uint256"
        },
        {
          "name": "tokenPrice",
          "type": "uint256"
        }
      ],
      "payable": false,
      "stateMutability": "view",
      "type": "function"
    },
    {
      "constant": true,
      "inputs": [],
      "name": "TokenIssuerName",
      "outputs": [
        {
          "name": "",
          "type": "bytes32"
        }
      ],
      "payable": false,
      "stateMutability": "view",
      "type": "function"
    },
    {
      "constant": true,
      "inputs": [],
      "name": "TokenIssuerAddress",
      "outputs": [
        {
          "name": "",
          "type": "address"
        }
      ],
      "payable": false,
      "stateMutability": "view",
      "type": "function"
    },
    {
      "constant": false,
      "inputs": [
        {
          "name": "_amountTokens",
          "type": "uint256"
        },
        {
          "name": "_tokenPrice",
          "type": "uint256"
        }
      ],
      "name": "sellTokens",
      "outputs": [],
      "payable": false,
      "stateMutability": "nonpayable",
      "type": "function"
    },
    {
      "inputs": [
        {
          "name": "_tokenIssuer",
          "type": "address"
        },
        {
          "name": "_tokenIssuerName",
          "type": "bytes32"
        },
        {
          "name": "_amountTokens",
          "type": "uint256"
        }
      ],
      "payable": false,
      "stateMutability": "nonpayable",
      "type": "constructor"
    },
    {
      "anonymous": false,
      "inputs": [
        {
          "indexed": false,
          "name": "_from",
          "type": "address"
        },
        {
          "indexed": false,
          "name": "_amountTokens",
          "type": "uint256"
        },
        {
          "indexed": false,
          "name": "_tokenPrices",
          "type": "uint256"
        }
      ],
      "name": "TokenForSale",
      "type": "event"
    },
    {
      "anonymous": false,
      "inputs": [
        {
          "indexed": false,
          "name": "_seller",
          "type": "address"
        },
        {
          "indexed": false,
          "name": "_buyer",
          "type": "address"
        },
        {
          "indexed": false,
          "name": "_amountTokens",
          "type": "uint256"
        }
      ],
      "name": "BuyToken",
      "type": "event"
    }
  ],
  "bytecode": "0x6060604052341561000f57600080fd5b6040516060806107df83398101604052808051906020019091908051906020019091908051906020019091905050826000806101000a81548173ffffffffffffffffffffffffffffffffffffffff021916908373ffffffffffffffffffffffffffffffffffffffff16021790555080600360008060009054906101000a900473ffffffffffffffffffffffffffffffffffffffff1673ffffffffffffffffffffffffffffffffffffffff1673ffffffffffffffffffffffffffffffffffffffff1681526020019081526020016000208190555081600181600019169055505050506106e0806100ff6000396000f30060606040526004361061006d576000357c0100000000000000000000000000000000000000000000000000000000900463ffffffff1680633b3a1c1314610072578063593fa374146100a05780636c892326146100ff578063c25d011414610130578063ed9772b614610185575b600080fd5b61009e600480803573ffffffffffffffffffffffffffffffffffffffff169060200190919050506101b1565b005b34156100ab57600080fd5b6100d7600480803573ffffffffffffffffffffffffffffffffffffffff16906020019091905050610487565b6040518084151515158152602001838152602001828152602001935050505060405180910390f35b341561010a57600080fd5b6101126104be565b60405180826000191660001916815260200191505060405180910390f35b341561013b57600080fd5b6101436104c4565b604051808273ffffffffffffffffffffffffffffffffffffffff1673ffffffffffffffffffffffffffffffffffffffff16815260200191505060405180910390f35b341561019057600080fd5b6101af60048080359060200190919080359060200190919050506104e9565b005b60008060011515600260008573ffffffffffffffffffffffffffffffffffffffff1673ffffffffffffffffffffffffffffffffffffffff16815260200190815260200160002060000160009054906101000a900460ff16151514151561021657600080fd5b600260008473ffffffffffffffffffffffffffffffffffffffff1673ffffffffffffffffffffffffffffffffffffffff168152602001908152602001600020600201549150813481151561026657fe5b04905080600260008573ffffffffffffffffffffffffffffffffffffffff1673ffffffffffffffffffffffffffffffffffffffff168152602001908152602001600020600101541115156102b957600080fd5b80600260008573ffffffffffffffffffffffffffffffffffffffff1673ffffffffffffffffffffffffffffffffffffffff1681526020019081526020016000206001016000828254039250508190555080600360008573ffffffffffffffffffffffffffffffffffffffff1673ffffffffffffffffffffffffffffffffffffffff1681526020019081526020016000206000828254039250508190555080600360003373ffffffffffffffffffffffffffffffffffffffff1673ffffffffffffffffffffffffffffffffffffffff168152602001908152602001600020600082825401925050819055508273ffffffffffffffffffffffffffffffffffffffff166108fc349081150290604051600060405180830381858888f1935050505015156103e357600080fd5b7fa5ff468a42a1c7f5a78dd6683a9722f1ef3c388d590959bbd7a6d2c837fcab07833383604051808473ffffffffffffffffffffffffffffffffffffffff1673ffffffffffffffffffffffffffffffffffffffff1681526020018373ffffffffffffffffffffffffffffffffffffffff1673ffffffffffffffffffffffffffffffffffffffff168152602001828152602001935050505060405180910390a1505050565b60026020528060005260406000206000915090508060000160009054906101000a900460ff16908060010154908060020154905083565b60015481565b6000809054906101000a900473ffffffffffffffffffffffffffffffffffffffff1681565b81600360003373ffffffffffffffffffffffffffffffffffffffff1673ffffffffffffffffffffffffffffffffffffffff1681526020019081526020016000205411151561053657600080fd5b60008211151561054557600080fd5b60008111151561055457600080fd5b81600260003373ffffffffffffffffffffffffffffffffffffffff1673ffffffffffffffffffffffffffffffffffffffff1681526020019081526020016000206001018190555080600260003373ffffffffffffffffffffffffffffffffffffffff1673ffffffffffffffffffffffffffffffffffffffff168152602001908152602001600020600201819055506001600260003373ffffffffffffffffffffffffffffffffffffffff1673ffffffffffffffffffffffffffffffffffffffff16815260200190815260200160002060000160006101000a81548160ff0219169083151502179055507f6c7743219e73f1449a2746f86e549a1f7905b26ec9b56ec6c88f1791dcc5a1c0338383604051808473ffffffffffffffffffffffffffffffffffffffff1673ffffffffffffffffffffffffffffffffffffffff168152602001838152602001828152602001935050505060405180910390a150505600a165627a7a72305820b708f2a69a595a906aae9d8fe1dce4b9becbc40be25b55fb6878b606390610cb0029",
  "source": "pragma solidity ^0.4.17;\n\ncontract Token {\n\n  address public TokenIssuerAddress;\n  bytes32 public TokenIssuerName;\n\n  struct TokenShop {\n    bool isActived;\n    uint amountTokens;\n    uint tokenPrice;\n  }\n\n  mapping (address => TokenShop) public tokenShops;\n  mapping (address => uint) totalTokens;\n\n  event TokenForSale(address _from, uint _amountTokens, uint _tokenPrices);\n  event BuyToken(address _seller, address _buyer, uint _amountTokens);\n\n  function Token(address _tokenIssuer, bytes32 _tokenIssuerName, uint _amountTokens) public {\n    TokenIssuerAddress = _tokenIssuer;\n    totalTokens[TokenIssuerAddress] = _amountTokens;\n    TokenIssuerName = _tokenIssuerName;\n  }\n\n\n  function sellTokens(uint _amountTokens, uint _tokenPrice) public {\n\n    require(totalTokens[msg.sender] > _amountTokens);\n    require(_amountTokens > 0);\n    require(_tokenPrice > 0);\n\n    tokenShops[msg.sender].amountTokens = _amountTokens;\n    tokenShops[msg.sender].tokenPrice = _tokenPrice;\n    tokenShops[msg.sender].isActived = true;\n    TokenForSale(msg.sender, _amountTokens, _tokenPrice);\n\n  }\n\n  function byTokens(address _from) payable public {\n\n    require(tokenShops[_from].isActived == true);\n    uint tokenPrice = tokenShops[_from].tokenPrice;\n    uint totalTokenBuy = msg.value / tokenPrice;\n\n    require(tokenShops[_from].amountTokens > totalTokenBuy);\n\n    tokenShops[_from].amountTokens -= totalTokenBuy;\n    totalTokens[_from] -= totalTokenBuy;\n    totalTokens[msg.sender] += totalTokenBuy;\n    _from.transfer(msg.value);\n    BuyToken(_from, msg.sender, totalTokenBuy);\n\n  }\n\n}\n",
  "sourcePath": "/home/blocker/Desktop/Blockathon/blockathon2017-team8/contracts/Token.sol",
  "compiler": {
    "name": "solc",
    "version": "0.4.18+commit.9cf6e910.Emscripten.clang"
  },
  "schemaVersion": "1.0.1",
  "updatedAt": "2017-11-25T01:40:56.859Z"
}