{
  "contractName": "Token",
  "abi": [
    {
      "constant": true,
      "inputs": [
        {
          "name": "_someone",
          "type": "address"
        },
        {
          "name": "_newAmount",
          "type": "uint256"
        }
      ],
      "name": "getAmountThisToken",
      "outputs": [
        {
          "name": "",
          "type": "uint256"
        }
      ],
      "payable": false,
      "stateMutability": "view",
      "type": "function"
    },
    {
      "constant": false,
      "inputs": [
        {
          "name": "_someone",
          "type": "address"
        },
        {
          "name": "_newAmount",
          "type": "uint256"
        }
      ],
      "name": "setAmoutThisToken",
      "outputs": [
        {
          "name": "",
          "type": "bool"
        },
        {
          "name": "amountTokens",
          "type": "uint256"
        },
        {
          "name": "tokenPrice",
          "type": "uint256"
        }
      ],
      "payable": false,
      "stateMutability": "nonpayable",
      "type": "function"
    },
    {
      "constant": true,
      "inputs": [
        {
          "name": "",
          "type": "address"
        }
      ],
      "name": "tokenShops",
      "outputs": [
        {
          "name": "isActived",
          "type": "bool"
        },
        {
          "name": "amountTokens",
          "type": "uint256"
        },
        {
          "name": "tokenPrice",
          "type": "uint256"
        }
      ],
      "payable": false,
      "stateMutability": "view",
      "type": "function"
    },
    {
      "constant": true,
      "inputs": [
        {
          "name": "",
          "type": "address"
        }
      ],
      "name": "TokenName",
      "outputs": [
        {
          "name": "",
          "type": "bytes32"
        },
        {
          "name": "amountTokens",
          "type": "uint256"
        },
        {
          "name": "tokenPrice",
          "type": "uint256"
        }
      ],
      "payable": false,
      "stateMutability": "view",
      "type": "function"
    },
    {
      "constant": true,
      "inputs": [
        {
          "name": "_amountTokens",
          "type": "uint256"
        },
        {
          "name": "_tokenPrice",
          "type": "uint256"
        }
      ],
      "name": "TokenIssuerAddress",
      "outputs": [
        {
          "name": "",
          "type": "address"
        }
      ],
      "payable": false,
      "stateMutability": "view",
      "type": "function"
    },
    {
      "inputs": [
        {
          "name": "_from",
          "type": "address"
        },
        {
          "name": "_tokenPrice",
          "type": "uint256"
        },
        {
          "name": "_amountTokens",
          "type": "uint256"
        }
      ],
      "payable": true,
      "stateMutability": "payable",
      "type": "function",
      "constant": false,
      "name": "buyTokens",
      "outputs": [
        {
          "name": "",
          "type": "address"
        }
      ]
    },
    {
      "anonymous": false,
      "inputs": [
        {
          "indexed": false,
          "name": "_amountTokens",
          "type": "uint256"
        },
        {
          "indexed": false,
          "name": "_tokenPrice",
          "type": "uint256"
        },
        {
          "indexed": false,
          "name": "_amountTokens",
          "type": "uint256"
        }
      ],
      "name": "sellTokens",
      "type": "function",
      "payable": false,
      "stateMutability": "nonpayable",
      "constant": false,
      "outputs": []
    },
    {
      "anonymous": false,
      "inputs": [
        {
          "indexed": false,
          "name": "_tokenIssuer",
          "type": "address"
        },
        {
          "indexed": false,
          "name": "_tokenName",
          "type": "bytes32"
        },
        {
          "indexed": false,
          "name": "_amountTokens",
          "type": "uint256"
        }
      ],
      "name": "getNameThisToken",
      "type": "function",
      "payable": false,
      "stateMutability": "view",
      "constant": true,
      "outputs": [
        {
          "name": "",
          "type": "bytes32"
        }
      ]
    },
    {
      "anonymous": false,
      "inputs": [
        {
          "indexed": false,
          "name": "_tokenIssuer",
          "type": "address"
        },
        {
          "indexed": false,
          "name": "_tokenName",
          "type": "bytes32"
        },
        {
          "indexed": false,
          "name": "_amountTokens",
          "type": "uint256"
        }
      ],
      "name": "SellToken_Ether",
      "type": "constructor",
      "payable": false,
      "stateMutability": "nonpayable"
    },
    {
      "anonymous": false,
      "inputs": [
        {
          "indexed": false,
          "name": "_from",
          "type": "address"
        },
        {
          "indexed": false,
          "name": "_amount",
          "type": "uint256"
        },
        {
          "indexed": false,
          "name": "_tokenPrice",
          "type": "uint256"
        },
        {
          "indexed": false,
          "name": "_tokenIssuerAddress",
          "type": "address"
        },
        {
          "indexed": false,
          "name": "_tokenName",
          "type": "bytes32"
        }
      ],
      "name": "SellToken_Ether",
      "type": "event"
    },
    {
      "anonymous": false,
      "inputs": [
        {
          "indexed": false,
          "name": "_from",
          "type": "address"
        },
        {
          "indexed": false,
          "name": "_to",
          "type": "address"
        },
        {
          "indexed": false,
          "name": "_totalTokenBuy",
          "type": "uint256"
        },
        {
          "indexed": false,
          "name": "_tokenIssuerAddress",
          "type": "address"
        },
        {
          "indexed": false,
          "name": "_tokenName",
          "type": "bytes32"
        }
      ],
      "name": "BuyToken_Ehter",
      "type": "event"
    }
  ],
  "bytecode": "0x6060604052341561000f57600080fd5b604051606080610a9783398101604052808051906020019091908051906020019091908051906020019091905050826000806101000a81548173ffffffffffffffffffffffffffffffffffffffff021916908373ffffffffffffffffffffffffffffffffffffffff16021790555080600360008060009054906101000a900473ffffffffffffffffffffffffffffffffffffffff1673ffffffffffffffffffffffffffffffffffffffff1673ffffffffffffffffffffffffffffffffffffffff168152602001908152602001600020819055508160018160001916905550505050610998806100ff6000396000f30060606040526004361061008e576000357c0100000000000000000000000000000000000000000000000000000000900463ffffffff1680632e6cc0531461009357806357304815146100e0578063593fa3741461013a578063b6d7855a14610199578063c25d0114146101ca578063ec8ac4d81461021f578063ed9772b61461024d578063fe3939f714610279575b600080fd5b341561009e57600080fd5b6100ca600480803573ffffffffffffffffffffffffffffffffffffffff169060200190919050506102aa565b6040518082815260200191505060405180910390f35b34156100eb57600080fd5b610120600480803573ffffffffffffffffffffffffffffffffffffffff169060200190919080359060200190919050506102f3565b604051808215151515815260200191505060405180910390f35b341561014557600080fd5b610171600480803573ffffffffffffffffffffffffffffffffffffffff16906020019091905050610343565b6040518084151515158152602001838152602001828152602001935050505060405180910390f35b34156101a457600080fd5b6101ac61037a565b60405180826000191660001916815260200191505060405180910390f35b34156101d557600080fd5b6101dd610380565b604051808273ffffffffffffffffffffffffffffffffffffffff1673ffffffffffffffffffffffffffffffffffffffff16815260200191505060405180910390f35b61024b600480803573ffffffffffffffffffffffffffffffffffffffff169060200190919050506103a5565b005b341561025857600080fd5b61027760048080359060200190919080359060200190919050506106e2565b005b341561028457600080fd5b61028c610962565b60405180826000191660001916815260200191505060405180910390f35b6000600360008373ffffffffffffffffffffffffffffffffffffffff1673ffffffffffffffffffffffffffffffffffffffff168152602001908152602001600020549050919050565b600081600360008573ffffffffffffffffffffffffffffffffffffffff1673ffffffffffffffffffffffffffffffffffffffff168152602001908152602001600020819055506001905092915050565b60026020528060005260406000206000915090508060000160009054906101000a900460ff16908060010154908060020154905083565b60015481565b6000809054906101000a900473ffffffffffffffffffffffffffffffffffffffff1681565b60008060011515600260008573ffffffffffffffffffffffffffffffffffffffff1673ffffffffffffffffffffffffffffffffffffffff16815260200190815260200160002060000160009054906101000a900460ff16151514151561040a57600080fd5b600260008473ffffffffffffffffffffffffffffffffffffffff1673ffffffffffffffffffffffffffffffffffffffff168152602001908152602001600020600201549150813481151561045a57fe5b04905080600260008573ffffffffffffffffffffffffffffffffffffffff1673ffffffffffffffffffffffffffffffffffffffff168152602001908152602001600020600101541115156104ad57600080fd5b80600260008573ffffffffffffffffffffffffffffffffffffffff1673ffffffffffffffffffffffffffffffffffffffff1681526020019081526020016000206001016000828254039250508190555080600360008573ffffffffffffffffffffffffffffffffffffffff1673ffffffffffffffffffffffffffffffffffffffff1681526020019081526020016000206000828254039250508190555080600360003373ffffffffffffffffffffffffffffffffffffffff1673ffffffffffffffffffffffffffffffffffffffff168152602001908152602001600020600082825401925050819055508273ffffffffffffffffffffffffffffffffffffffff166108fc349081150290604051600060405180830381858888f1935050505015156105d757600080fd5b7fed12fd386ef6331096fee82eb252bcd8e3f36a469072400a221154fe7fd2c76e8333836000809054906101000a900473ffffffffffffffffffffffffffffffffffffffff16600154604051808673ffffffffffffffffffffffffffffffffffffffff1673ffffffffffffffffffffffffffffffffffffffff1681526020018573ffffffffffffffffffffffffffffffffffffffff1673ffffffffffffffffffffffffffffffffffffffff1681526020018481526020018373ffffffffffffffffffffffffffffffffffffffff1673ffffffffffffffffffffffffffffffffffffffff16815260200182600019166000191681526020019550505050505060405180910390a1505050565b6000600360003373ffffffffffffffffffffffffffffffffffffffff1673ffffffffffffffffffffffffffffffffffffffff1681526020019081526020016000205411151561073057600080fd5b81600360003373ffffffffffffffffffffffffffffffffffffffff1673ffffffffffffffffffffffffffffffffffffffff1681526020019081526020016000205411151561077d57600080fd5b60008211151561078c57600080fd5b60008111151561079b57600080fd5b81600260003373ffffffffffffffffffffffffffffffffffffffff1673ffffffffffffffffffffffffffffffffffffffff1681526020019081526020016000206001018190555080600260003373ffffffffffffffffffffffffffffffffffffffff1673ffffffffffffffffffffffffffffffffffffffff168152602001908152602001600020600201819055506001600260003373ffffffffffffffffffffffffffffffffffffffff1673ffffffffffffffffffffffffffffffffffffffff16815260200190815260200160002060000160006101000a81548160ff0219169083151502179055507f1015d42154ec3496e8f271fd08fe4d0d30cd90c5001acf81efae08bc9784dfae3383836000809054906101000a900473ffffffffffffffffffffffffffffffffffffffff16600154604051808673ffffffffffffffffffffffffffffffffffffffff1673ffffffffffffffffffffffffffffffffffffffff1681526020018581526020018481526020018373ffffffffffffffffffffffffffffffffffffffff1673ffffffffffffffffffffffffffffffffffffffff16815260200182600019166000191681526020019550505050505060405180910390a15050565b60006001549050905600a165627a7a723058202a8b70a2208d6d608e8acf3521eb8aa13f2f7701f75a1c6ac98f6fe3a503dd370029",
  "source": "pragma solidity ^0.4.17;\n\ncontract Token {\n\n  address public TokenIssuerAddress;\n  bytes32 public TokenName;\n\n\n  struct TokenShop {\n    bool isActived;\n    uint amountTokens;\n    uint tokenPrice;\n  }\n\n  mapping (address => TokenShop) public tokenShops;\n  mapping (address => uint) totalTokens;\n\n  event SellToken_Ether(address _from, uint _amount, uint _tokenPrice, address _tokenIssuerAddress, bytes32 _tokenName);\n  event BuyToken_Ehter(address _from, address _to,uint _totalTokenBuy, address _tokenIssuerAddress, bytes32 _tokenName);\n\n  function Token(address _tokenIssuer, bytes32 _tokenName, uint _amountTokens) public {\n    TokenIssuerAddress = _tokenIssuer;\n    totalTokens[TokenIssuerAddress] = _amountTokens;\n    TokenName = _tokenName;\n  }\n\n\n  function sellTokens(uint _amountTokens, uint _tokenPrice) public {\n\n    require(totalTokens[msg.sender] > 0);\n    require(totalTokens[msg.sender] > _amountTokens);\n    require(_amountTokens > 0);\n    require(_tokenPrice > 0);\n\n    tokenShops[msg.sender].amountTokens = _amountTokens;\n    tokenShops[msg.sender].tokenPrice = _tokenPrice;\n    tokenShops[msg.sender].isActived = true;\n    SellToken_Ether(msg.sender, _amountTokens, _tokenPrice, TokenIssuerAddress, TokenName);\n\n  }\n\n  function buyTokens(address _from) payable public {\n\n    require(tokenShops[_from].isActived == true);\n    uint tokenPrice = tokenShops[_from].tokenPrice;\n    uint totalTokenBuy = msg.value / tokenPrice;\n\n    require(tokenShops[_from].amountTokens > totalTokenBuy);\n\n    tokenShops[_from].amountTokens -= totalTokenBuy;\n    totalTokens[_from] -= totalTokenBuy;\n    totalTokens[msg.sender] += totalTokenBuy;\n    _from.transfer(msg.value);\n    BuyToken_Ehter(_from, msg.sender, totalTokenBuy, TokenIssuerAddress, TokenName);\n\n  }\n\n  function getNameThisToken() view public returns (bytes32){\n    // 1. Check if address of msg.sender valid\n    // 2. return name of this Token\n    return TokenName;\n  }\n\n  function getAmountThisToken(address _someone) view public returns (uint){\n    // 1. Check if address of msg.sender valid\n    // 2. Reutrn sumary of this Token\n    return totalTokens[_someone];\n  }\n\n  function setAmoutThisToken(address _someone, uint _newAmount) returns (bool) {\n    // 1. Check iff address of msg.sender valid\n    // 2. Set new amount Token\n    totalTokens[_someone] = _newAmount;\n    return true;\n  }\n\n\n\n\n\n}\n",
  "sourcePath": "/home/blocker/Desktop/Blockathon/blockathon2017-team8/contracts/Token.sol",
  "compiler": {
    "name": "solc",
    "version": "0.4.18+commit.9cf6e910.Emscripten.clang"
  },
  "schemaVersion": "1.0.1",
  "updatedAt": "2017-11-25T08:29:16.475Z"
}