{
  "contractName": "TradeToken",
  "abi": [
    {
      "inputs": [],
      "payable": false,
      "stateMutability": "nonpayable",
      "type": "function",
      "constant": false,
      "name": "someOneAccept",
      "outputs": [
        {
          "name": "",
          "type": "address"
        }
      ]
    },
    {
      "inputs": [],
      "payable": false,
      "stateMutability": "view",
      "type": "function",
      "constant": true,
      "name": "Tok",
      "outputs": [
        {
          "name": "",
          "type": "address"
        }
      ]
    },
    {
      "inputs": [
        {
          "name": "_tokenAType",
          "type": "address"
        },
        {
          "name": "_amountA",
          "type": "uint256"
        },
        {
          "name": "_tokenBType",
          "type": "address"
        },
        {
          "name": "_amountB",
          "type": "uint256"
        }
      ],
      "payable": false,
      "stateMutability": "nonpayable",
      "type": "constructor"
    },
    {
      "anonymous": false,
      "inputs": [
        {
          "indexed": false,
          "name": "_A_Actor",
          "type": "address"
        },
        {
          "indexed": false,
          "name": "_tokenNameA",
          "type": "bytes32"
        },
        {
          "indexed": false,
          "name": "_amountA",
          "type": "uint256"
        },
        {
          "indexed": false,
          "name": "_B_Actor",
          "type": "address"
        },
        {
          "indexed": false,
          "name": "_tokenNameB",
          "type": "bytes32"
        },
        {
          "indexed": false,
          "name": "_amountB",
          "type": "uint256"
        }
      ],
      "name": "exChangeToken",
      "type": "event"
    }
  ],
  "bytecode": "0x6060604052341561000f57600080fd5b604051608080610b8b8339810160405280805190602001909190805190602001909190805190602001909190805190602001909190505082610064853361014a64010000000002610580176401000000009004565b11151561007057600080fd5b33600660006101000a81548173ffffffffffffffffffffffffffffffffffffffff021916908373ffffffffffffffffffffffffffffffffffffffff16021790555083600160006101000a81548173ffffffffffffffffffffffffffffffffffffffff021916908373ffffffffffffffffffffffffffffffffffffffff16021790555081600260006101000a81548173ffffffffffffffffffffffffffffffffffffffff021916908373ffffffffffffffffffffffffffffffffffffffff160217905550826003819055508060048190555050505050610273565b6000826000806101000a81548173ffffffffffffffffffffffffffffffffffffffff021916908373ffffffffffffffffffffffffffffffffffffffff1602179055506000809054906101000a900473ffffffffffffffffffffffffffffffffffffffff1673ffffffffffffffffffffffffffffffffffffffff16632e6cc053836000604051602001526040518263ffffffff167c0100000000000000000000000000000000000000000000000000000000028152600401808273ffffffffffffffffffffffffffffffffffffffff1673ffffffffffffffffffffffffffffffffffffffff168152602001915050602060405180830381600087803b151561025057600080fd5b6102c65a03f1151561026157600080fd5b50505060405180519050905092915050565b610909806102826000396000f30060606040526004361061004c576000357c0100000000000000000000000000000000000000000000000000000000900463ffffffff1680635a667e7f146100515780636a45750c14610066575b600080fd5b341561005c57600080fd5b6100646100bb565b005b341561007157600080fd5b61007961055b565b604051808273ffffffffffffffffffffffffffffffffffffffff1673ffffffffffffffffffffffffffffffffffffffff16815260200191505060405180910390f35b60008060008060006003541115156100d257600080fd5b60006004541115156100e357600080fd5b33600760006101000a81548173ffffffffffffffffffffffffffffffffffffffff021916908373ffffffffffffffffffffffffffffffffffffffff160217905550610172600260009054906101000a900473ffffffffffffffffffffffffffffffffffffffff16600660009054906101000a900473ffffffffffffffffffffffffffffffffffffffff16610580565b93506101c2600160009054906101000a900473ffffffffffffffffffffffffffffffffffffffff16600760009054906101000a900473ffffffffffffffffffffffffffffffffffffffff16610580565b9250610212600160009054906101000a900473ffffffffffffffffffffffffffffffffffffffff16600660009054906101000a900473ffffffffffffffffffffffffffffffffffffffff16610580565b9150610262600260009054906101000a900473ffffffffffffffffffffffffffffffffffffffff16600760009054906101000a900473ffffffffffffffffffffffffffffffffffffffff16610580565b9050600354821015151561027557600080fd5b600454811015151561028657600080fd5b6003548203915060045481039050600454840193506003548301925060006003819055506000600481905550610301600160009054906101000a900473ffffffffffffffffffffffffffffffffffffffff16600760009054906101000a900473ffffffffffffffffffffffffffffffffffffffff16856106a9565b50610351600260009054906101000a900473ffffffffffffffffffffffffffffffffffffffff16600760009054906101000a900473ffffffffffffffffffffffffffffffffffffffff16836106a9565b506103a1600160009054906101000a900473ffffffffffffffffffffffffffffffffffffffff16600660009054906101000a900473ffffffffffffffffffffffffffffffffffffffff16846106a9565b506103f1600260009054906101000a900473ffffffffffffffffffffffffffffffffffffffff16600660009054906101000a900473ffffffffffffffffffffffffffffffffffffffff16866106a9565b507fb9dea4fd81fc65b2aec9c7e0ecd304b7d7483c31094dd9c43b24913abd6c4b63600660009054906101000a900473ffffffffffffffffffffffffffffffffffffffff16610461600160009054906101000a900473ffffffffffffffffffffffffffffffffffffffff166107ec565b600354600760009054906101000a900473ffffffffffffffffffffffffffffffffffffffff166104b2600260009054906101000a900473ffffffffffffffffffffffffffffffffffffffff166107ec565b600454604051808773ffffffffffffffffffffffffffffffffffffffff1673ffffffffffffffffffffffffffffffffffffffff16815260200186600019166000191681526020018581526020018473ffffffffffffffffffffffffffffffffffffffff1673ffffffffffffffffffffffffffffffffffffffff1681526020018360001916600019168152602001828152602001965050505050505060405180910390a150505050565b6000809054906101000a900473ffffffffffffffffffffffffffffffffffffffff1681565b6000826000806101000a81548173ffffffffffffffffffffffffffffffffffffffff021916908373ffffffffffffffffffffffffffffffffffffffff1602179055506000809054906101000a900473ffffffffffffffffffffffffffffffffffffffff1673ffffffffffffffffffffffffffffffffffffffff16632e6cc053836000604051602001526040518263ffffffff167c0100000000000000000000000000000000000000000000000000000000028152600401808273ffffffffffffffffffffffffffffffffffffffff1673ffffffffffffffffffffffffffffffffffffffff168152602001915050602060405180830381600087803b151561068657600080fd5b6102c65a03f1151561069757600080fd5b50505060405180519050905092915050565b6000836000806101000a81548173ffffffffffffffffffffffffffffffffffffffff021916908373ffffffffffffffffffffffffffffffffffffffff1602179055506000809054906101000a900473ffffffffffffffffffffffffffffffffffffffff1673ffffffffffffffffffffffffffffffffffffffff16635730481584846000604051602001526040518363ffffffff167c0100000000000000000000000000000000000000000000000000000000028152600401808373ffffffffffffffffffffffffffffffffffffffff1673ffffffffffffffffffffffffffffffffffffffff16815260200182815260200192505050602060405180830381600087803b15156107b757600080fd5b6102c65a03f115156107c857600080fd5b50505060405180519050156107e057600190506107e5565b600090505b9392505050565b6000816000806101000a81548173ffffffffffffffffffffffffffffffffffffffff021916908373ffffffffffffffffffffffffffffffffffffffff1602179055506000809054906101000a900473ffffffffffffffffffffffffffffffffffffffff1673ffffffffffffffffffffffffffffffffffffffff1663fe3939f76000604051602001526040518163ffffffff167c0100000000000000000000000000000000000000000000000000000000028152600401602060405180830381600087803b15156108bb57600080fd5b6102c65a03f115156108cc57600080fd5b5050506040518051905090509190505600a165627a7a72305820d0fa58feb554c799f5d36cb4aea51e956e3e59549352268cb509d895523da3030029",
  "source": "pragma solidity ^0.4.17;\nimport \"./Token.sol\";\n\ncontract TradeToken {\n\n  Token public Tok;\n\n  address TokenAType;\n  address TokenBType;\n  uint AmountA;\n  uint AmountB;\n  uint ConvertionRate;\n\n  address A_Actor;\n  address B_Actor;\n\n  event exChangeToken(address _A_Actor, bytes32 _tokenNameA, uint _amountA, address _B_Actor, bytes32 _tokenNameB, uint _amountB);\n\n  function TradeToken(address _tokenAType, uint _amountA, address _tokenBType, uint _amountB) public {\n      require(getTotalAmountToken(_tokenAType, msg.sender) > _amountA);\n      A_Actor = msg.sender;\n      TokenAType = _tokenAType;\n      TokenBType = _tokenBType;\n      AmountA = _amountA;\n      AmountB = _amountB;\n  }\n\n  function someOneAccept() {\n    require(AmountA > 0);\n    require(AmountB > 0);\n    B_Actor = msg.sender;\n\n    uint totalTokenB_ofA = getTotalAmountToken(TokenBType, A_Actor);\n    uint totalTokenA_ofB = getTotalAmountToken(TokenAType, B_Actor);\n\n\n    uint totalTokenA_ofA = getTotalAmountToken(TokenAType, A_Actor);\n    uint totalTokenB_ofB = getTotalAmountToken(TokenBType, B_Actor);\n\n    require(totalTokenA_ofA >= AmountA);\n    require(totalTokenB_ofB >= AmountB);\n\n    totalTokenA_ofA -= AmountA;\n    totalTokenB_ofB -= AmountB;\n\n    totalTokenB_ofA += AmountB;\n    totalTokenA_ofB += AmountA;\n\n    AmountA = 0;\n    AmountB = 0;\n\n    setTotalAmountToken(TokenAType, B_Actor, totalTokenA_ofB);\n    setTotalAmountToken(TokenBType, B_Actor, totalTokenB_ofB);\n\n    setTotalAmountToken(TokenAType, A_Actor, totalTokenA_ofA);\n    setTotalAmountToken(TokenBType, A_Actor, totalTokenB_ofA);\n\n    exChangeToken(A_Actor, getThisTokenName(TokenAType), AmountA, B_Actor, getThisTokenName(TokenBType), AmountB);\n  }\n\n  function getThisTokenName(address _tokenAddress) private returns (bytes32) {\n    Tok = Token(_tokenAddress);\n    return  Tok.getNameThisToken();\n  }\n\n  function getTotalAmountToken(address _tokenAddress, address _someone) private returns (uint) {\n    Tok = Token(_tokenAddress);\n    return Tok.getAmountThisToken(_someone);\n  }\n\n  function setTotalAmountToken(address _tokenAddress, address _somone, uint _totalAmount) private returns (bool) {\n    Tok = Token(_tokenAddress);\n    if(Tok.setAmoutThisToken(_somone, _totalAmount))\n      return true;\n    else\n      return false;\n  }\n\n}\n",
  "sourcePath": "/home/blocker/Desktop/Blockathon/blockathon2017-team8/contracts/TradeToken.sol",
  "compiler": {
    "name": "solc",
    "version": "0.4.18+commit.9cf6e910.Emscripten.clang"
  },
  "schemaVersion": "1.0.1",
  "updatedAt": "2017-11-25T08:29:16.533Z"
}